{
  "_format": "hh-sol-artifact-1",
  "contractName": "DMEContract",
  "sourceName": "contracts/DMEContract.sol",
  "abi": [
    {
      "inputs": [],
      "stateMutability": "nonpayable",
      "type": "constructor"
    },
    {
      "inputs": [
        {
          "internalType": "string",
          "name": "cid",
          "type": "string"
        },
        {
          "internalType": "string",
          "name": "fileType",
          "type": "string"
        }
      ],
      "name": "addFile",
      "outputs": [],
      "stateMutability": "nonpayable",
      "type": "function"
    },
    {
      "inputs": [
        {
          "internalType": "address",
          "name": "doctor",
          "type": "address"
        }
      ],
      "name": "canAccess",
      "outputs": [
        {
          "internalType": "bool",
          "name": "",
          "type": "bool"
        }
      ],
      "stateMutability": "view",
      "type": "function"
    },
    {
      "inputs": [
        {
          "internalType": "address",
          "name": "doctor",
          "type": "address"
        },
        {
          "internalType": "string",
          "name": "cid",
          "type": "string"
        }
      ],
      "name": "canAccess",
      "outputs": [
        {
          "internalType": "bool",
          "name": "",
          "type": "bool"
        }
      ],
      "stateMutability": "view",
      "type": "function"
    },
    {
      "inputs": [
        {
          "internalType": "uint256",
          "name": "",
          "type": "uint256"
        }
      ],
      "name": "doctorsWithAccess",
      "outputs": [
        {
          "internalType": "address",
          "name": "",
          "type": "address"
        }
      ],
      "stateMutability": "view",
      "type": "function"
    },
    {
      "inputs": [
        {
          "internalType": "uint256",
          "name": "",
          "type": "uint256"
        }
      ],
      "name": "files",
      "outputs": [
        {
          "internalType": "string",
          "name": "cid",
          "type": "string"
        },
        {
          "internalType": "string",
          "name": "fileType",
          "type": "string"
        }
      ],
      "stateMutability": "view",
      "type": "function"
    },
    {
      "inputs": [],
      "name": "getDoctorsWithAccess",
      "outputs": [
        {
          "internalType": "address[]",
          "name": "",
          "type": "address[]"
        },
        {
          "internalType": "string[]",
          "name": "",
          "type": "string[]"
        }
      ],
      "stateMutability": "view",
      "type": "function"
    },
    {
      "inputs": [
        {
          "internalType": "uint256",
          "name": "fileIndex",
          "type": "uint256"
        }
      ],
      "name": "getFileDetails",
      "outputs": [
        {
          "internalType": "string",
          "name": "cid",
          "type": "string"
        },
        {
          "internalType": "string",
          "name": "fileType",
          "type": "string"
        }
      ],
      "stateMutability": "view",
      "type": "function"
    },
    {
      "inputs": [
        {
          "internalType": "address",
          "name": "doctor",
          "type": "address"
        }
      ],
      "name": "getFilesWithAccess",
      "outputs": [
        {
          "internalType": "string[]",
          "name": "",
          "type": "string[]"
        }
      ],
      "stateMutability": "view",
      "type": "function"
    },
    {
      "inputs": [
        {
          "internalType": "address",
          "name": "doctor",
          "type": "address"
        },
        {
          "internalType": "uint256",
          "name": "duration",
          "type": "uint256"
        },
        {
          "internalType": "string",
          "name": "doctorName",
          "type": "string"
        },
        {
          "internalType": "string[]",
          "name": "cids",
          "type": "string[]"
        }
      ],
      "name": "grantAccess",
      "outputs": [],
      "stateMutability": "nonpayable",
      "type": "function"
    },
    {
      "inputs": [],
      "name": "patient",
      "outputs": [
        {
          "internalType": "address",
          "name": "",
          "type": "address"
        }
      ],
      "stateMutability": "view",
      "type": "function"
    },
    {
      "inputs": [
        {
          "internalType": "address",
          "name": "",
          "type": "address"
        }
      ],
      "name": "permissions",
      "outputs": [
        {
          "internalType": "address",
          "name": "doctor",
          "type": "address"
        },
        {
          "internalType": "uint256",
          "name": "validUntil",
          "type": "uint256"
        },
        {
          "internalType": "bool",
          "name": "canAccess",
          "type": "bool"
        },
        {
          "internalType": "string",
          "name": "doctorName",
          "type": "string"
        }
      ],
      "stateMutability": "view",
      "type": "function"
    },
    {
      "inputs": [
        {
          "internalType": "address",
          "name": "doctor",
          "type": "address"
        }
      ],
      "name": "revokeAccess",
      "outputs": [],
      "stateMutability": "nonpayable",
      "type": "function"
    }
  ],
  "bytecode": "0x6080604052348015600f57600080fd5b5033600160006101000a81548173ffffffffffffffffffffffffffffffffffffffff021916908373ffffffffffffffffffffffffffffffffffffffff160217905550612622806100606000396000f3fe608060405234801561001057600080fd5b50600436106100b45760003560e01c80636af1c5f0116100715780636af1c5f0146101b557806384fdd152146101e557806385e6853114610215578063bd96bd2014610231578063f06879d71461024f578063f4c714b41461026e576100b4565b806301e88208146100b95780630fb10631146100ec57806318a9d2221461011d5780631a14bfa91461014d578063248bfc3b1461016957806356b13d4814610185575b600080fd5b6100d360048036038101906100ce9190611920565b61029f565b6040516100e39493929190611a20565b60405180910390f35b61010660048036038101906101019190611a98565b610384565b604051610114929190611ac5565b60405180910390f35b61013760048036038101906101329190611920565b610537565b6040516101449190611afc565b60405180910390f35b61016760048036038101906101629190611d32565b610788565b005b610183600480360381019061017e9190611dd1565b610a05565b005b61019f600480360381019061019a9190611e49565b610b07565b6040516101ac9190611afc565b60405180910390f35b6101cf60048036038101906101ca9190611a98565b610e04565b6040516101dc9190611ea5565b60405180910390f35b6101ff60048036038101906101fa9190611920565b610e43565b60405161020c9190611fcc565b60405180910390f35b61022f600480360381019061022a9190611920565b611085565b005b610239611172565b6040516102469190611ea5565b60405180910390f35b610257611198565b6040516102659291906120ac565b60405180910390f35b61028860048036038101906102839190611a98565b611690565b604051610296929190611ac5565b60405180910390f35b60006020528060005260406000206000915090508060000160009054906101000a900473ffffffffffffffffffffffffffffffffffffffff16908060010154908060020160009054906101000a900460ff169080600301805461030190612112565b80601f016020809104026020016040519081016040528092919081815260200182805461032d90612112565b801561037a5780601f1061034f5761010080835404028352916020019161037a565b820191906000526020600020905b81548152906001019060200180831161035d57829003601f168201915b5050505050905084565b60608060028054905083106103ce576040517f08c379a00000000000000000000000000000000000000000000000000000000081526004016103c59061218f565b60405180910390fd5b6000600284815481106103e4576103e36121af565b5b906000526020600020906002020160405180604001604052908160008201805461040d90612112565b80601f016020809104026020016040519081016040528092919081815260200182805461043990612112565b80156104865780601f1061045b57610100808354040283529160200191610486565b820191906000526020600020905b81548152906001019060200180831161046957829003601f168201915b5050505050815260200160018201805461049f90612112565b80601f01602080910402602001604051908101604052809291908181526020018280546104cb90612112565b80156105185780601f106104ed57610100808354040283529160200191610518565b820191906000526020600020905b8154815290600101906020018083116104fb57829003601f168201915b5050505050815250509050806000015181602001519250925050915091565b6000806000808473ffffffffffffffffffffffffffffffffffffffff1673ffffffffffffffffffffffffffffffffffffffff1681526020019081526020016000206040518060a00160405290816000820160009054906101000a900473ffffffffffffffffffffffffffffffffffffffff1673ffffffffffffffffffffffffffffffffffffffff1673ffffffffffffffffffffffffffffffffffffffff168152602001600182015481526020016002820160009054906101000a900460ff1615151515815260200160038201805461060e90612112565b80601f016020809104026020016040519081016040528092919081815260200182805461063a90612112565b80156106875780601f1061065c57610100808354040283529160200191610687565b820191906000526020600020905b81548152906001019060200180831161066a57829003601f168201915b5050505050815260200160048201805480602002602001604051908101604052809291908181526020016000905b828210156107615783829060005260206000200180546106d490612112565b80601f016020809104026020016040519081016040528092919081815260200182805461070090612112565b801561074d5780601f106107225761010080835404028352916020019161074d565b820191906000526020600020905b81548152906001019060200180831161073057829003601f168201915b5050505050815260200190600101906106b5565b5050505081525050905080604001518015610780575080602001514211155b915050919050565b600160009054906101000a900473ffffffffffffffffffffffffffffffffffffffff1673ffffffffffffffffffffffffffffffffffffffff163373ffffffffffffffffffffffffffffffffffffffff1614610818576040517f08c379a000000000000000000000000000000000000000000000000000000000815260040161080f90612250565b60405180910390fd5b6000808573ffffffffffffffffffffffffffffffffffffffff1673ffffffffffffffffffffffffffffffffffffffff16815260200190815260200160002060020160009054906101000a900460ff166108cf576003849080600181540180825580915050600190039060005260206000200160009091909190916101000a81548173ffffffffffffffffffffffffffffffffffffffff021916908373ffffffffffffffffffffffffffffffffffffffff1602179055505b6040518060a001604052808573ffffffffffffffffffffffffffffffffffffffff1681526020018442610902919061229f565b8152602001600115158152602001838152602001828152506000808673ffffffffffffffffffffffffffffffffffffffff1673ffffffffffffffffffffffffffffffffffffffff16815260200190815260200160002060008201518160000160006101000a81548173ffffffffffffffffffffffffffffffffffffffff021916908373ffffffffffffffffffffffffffffffffffffffff1602179055506020820151816001015560408201518160020160006101000a81548160ff02191690831515021790555060608201518160030190816109de919061247f565b5060808201518160040190805190602001906109fb9291906117d4565b5090505050505050565b600160009054906101000a900473ffffffffffffffffffffffffffffffffffffffff1673ffffffffffffffffffffffffffffffffffffffff163373ffffffffffffffffffffffffffffffffffffffff1614610a95576040517f08c379a0000000000000000000000000000000000000000000000000000000008152600401610a8c90612250565b60405180910390fd5b600260405180604001604052808481526020018381525090806001815401808255809150506001900390600052602060002090600202016000909190919091506000820151816000019081610aea919061247f565b506020820151816001019081610b00919061247f565b5050505050565b6000806000808573ffffffffffffffffffffffffffffffffffffffff1673ffffffffffffffffffffffffffffffffffffffff1681526020019081526020016000206040518060a00160405290816000820160009054906101000a900473ffffffffffffffffffffffffffffffffffffffff1673ffffffffffffffffffffffffffffffffffffffff1673ffffffffffffffffffffffffffffffffffffffff168152602001600182015481526020016002820160009054906101000a900460ff16151515158152602001600382018054610bde90612112565b80601f0160208091040260200160405190810160405280929190818152602001828054610c0a90612112565b8015610c575780601f10610c2c57610100808354040283529160200191610c57565b820191906000526020600020905b815481529060010190602001808311610c3a57829003601f168201915b5050505050815260200160048201805480602002602001604051908101604052809291908181526020016000905b82821015610d31578382906000526020600020018054610ca490612112565b80601f0160208091040260200160405190810160405280929190818152602001828054610cd090612112565b8015610d1d5780601f10610cf257610100808354040283529160200191610d1d565b820191906000526020600020905b815481529060010190602001808311610d0057829003601f168201915b505050505081526020019060010190610c85565b5050505081525050905080604001511580610d4f5750806020015142115b15610d5e576000915050610dfe565b60005b816080015151811015610df75783604051602001610d7f919061258d565b6040516020818303038152906040528051906020012082608001518281518110610dac57610dab6121af565b5b6020026020010151604051602001610dc4919061258d565b6040516020818303038152906040528051906020012003610dea57600192505050610dfe565b8080600101915050610d61565b5060009150505b92915050565b60038181548110610e1457600080fd5b906000526020600020016000915054906101000a900473ffffffffffffffffffffffffffffffffffffffff1681565b606060008060008473ffffffffffffffffffffffffffffffffffffffff1673ffffffffffffffffffffffffffffffffffffffff1681526020019081526020016000206040518060a00160405290816000820160009054906101000a900473ffffffffffffffffffffffffffffffffffffffff1673ffffffffffffffffffffffffffffffffffffffff1673ffffffffffffffffffffffffffffffffffffffff168152602001600182015481526020016002820160009054906101000a900460ff16151515158152602001600382018054610f1b90612112565b80601f0160208091040260200160405190810160405280929190818152602001828054610f4790612112565b8015610f945780601f10610f6957610100808354040283529160200191610f94565b820191906000526020600020905b815481529060010190602001808311610f7757829003601f168201915b5050505050815260200160048201805480602002602001604051908101604052809291908181526020016000905b8282101561106e578382906000526020600020018054610fe190612112565b80601f016020809104026020016040519081016040528092919081815260200182805461100d90612112565b801561105a5780601f1061102f5761010080835404028352916020019161105a565b820191906000526020600020905b81548152906001019060200180831161103d57829003601f168201915b505050505081526020019060010190610fc2565b505050508152505090508060800151915050919050565b600160009054906101000a900473ffffffffffffffffffffffffffffffffffffffff1673ffffffffffffffffffffffffffffffffffffffff163373ffffffffffffffffffffffffffffffffffffffff1614611115576040517f08c379a000000000000000000000000000000000000000000000000000000000815260040161110c90612250565b60405180910390fd5b60008060008373ffffffffffffffffffffffffffffffffffffffff1673ffffffffffffffffffffffffffffffffffffffff16815260200190815260200160002060020160006101000a81548160ff02191690831515021790555050565b600160009054906101000a900473ffffffffffffffffffffffffffffffffffffffff1681565b6060806000805b6003805490508110156112e557600080600383815481106111c3576111c26121af565b5b9060005260206000200160009054906101000a900473ffffffffffffffffffffffffffffffffffffffff1673ffffffffffffffffffffffffffffffffffffffff1673ffffffffffffffffffffffffffffffffffffffff16815260200190815260200160002060020160009054906101000a900460ff1680156112c4575060008060038381548110611257576112566121af565b5b9060005260206000200160009054906101000a900473ffffffffffffffffffffffffffffffffffffffff1673ffffffffffffffffffffffffffffffffffffffff1673ffffffffffffffffffffffffffffffffffffffff168152602001908152602001600020600101544211155b156112d85781806112d4906125a4565b9250505b808060010191505061119f565b5060008167ffffffffffffffff81111561130257611301611b21565b5b6040519080825280602002602001820160405280156113305781602001602082028036833780820191505090505b50905060008267ffffffffffffffff81111561134f5761134e611b21565b5b60405190808252806020026020018201604052801561138257816020015b606081526020019060019003908161136d5790505b5090506000805b60038054905081101561168157600080600383815481106113ad576113ac6121af565b5b9060005260206000200160009054906101000a900473ffffffffffffffffffffffffffffffffffffffff1673ffffffffffffffffffffffffffffffffffffffff1673ffffffffffffffffffffffffffffffffffffffff16815260200190815260200160002060020160009054906101000a900460ff1680156114ae575060008060038381548110611441576114406121af565b5b9060005260206000200160009054906101000a900473ffffffffffffffffffffffffffffffffffffffff1673ffffffffffffffffffffffffffffffffffffffff1673ffffffffffffffffffffffffffffffffffffffff168152602001908152602001600020600101544211155b1561167457600381815481106114c7576114c66121af565b5b9060005260206000200160009054906101000a900473ffffffffffffffffffffffffffffffffffffffff16848381518110611505576115046121af565b5b602002602001019073ffffffffffffffffffffffffffffffffffffffff16908173ffffffffffffffffffffffffffffffffffffffff168152505060008060038381548110611556576115556121af565b5b9060005260206000200160009054906101000a900473ffffffffffffffffffffffffffffffffffffffff1673ffffffffffffffffffffffffffffffffffffffff1673ffffffffffffffffffffffffffffffffffffffff16815260200190815260200160002060030180546115c990612112565b80601f01602080910402602001604051908101604052809291908181526020018280546115f590612112565b80156116425780601f1061161757610100808354040283529160200191611642565b820191906000526020600020905b81548152906001019060200180831161162557829003601f168201915b505050505083838151811061165a576116596121af565b5b60200260200101819052508180611670906125a4565b9250505b8080600101915050611389565b50828295509550505050509091565b600281815481106116a057600080fd5b90600052602060002090600202016000915090508060000180546116c390612112565b80601f01602080910402602001604051908101604052809291908181526020018280546116ef90612112565b801561173c5780601f106117115761010080835404028352916020019161173c565b820191906000526020600020905b81548152906001019060200180831161171f57829003601f168201915b50505050509080600101805461175190612112565b80601f016020809104026020016040519081016040528092919081815260200182805461177d90612112565b80156117ca5780601f1061179f576101008083540402835291602001916117ca565b820191906000526020600020905b8154815290600101906020018083116117ad57829003601f168201915b5050505050905082565b82805482825590600052602060002090810192821561181c579160200282015b8281111561181b57825182908161180b919061247f565b50916020019190600101906117f4565b5b509050611829919061182d565b5090565b5b8082111561184d57600081816118449190611851565b5060010161182e565b5090565b50805461185d90612112565b6000825580601f1061186f575061188e565b601f01602090049060005260206000209081019061188d9190611891565b5b50565b5b808211156118aa576000816000905550600101611892565b5090565b6000604051905090565b600080fd5b600080fd5b600073ffffffffffffffffffffffffffffffffffffffff82169050919050565b60006118ed826118c2565b9050919050565b6118fd816118e2565b811461190857600080fd5b50565b60008135905061191a816118f4565b92915050565b600060208284031215611936576119356118b8565b5b60006119448482850161190b565b91505092915050565b611956816118e2565b82525050565b6000819050919050565b61196f8161195c565b82525050565b60008115159050919050565b61198a81611975565b82525050565b600081519050919050565b600082825260208201905092915050565b60005b838110156119ca5780820151818401526020810190506119af565b60008484015250505050565b6000601f19601f8301169050919050565b60006119f282611990565b6119fc818561199b565b9350611a0c8185602086016119ac565b611a15816119d6565b840191505092915050565b6000608082019050611a35600083018761194d565b611a426020830186611966565b611a4f6040830185611981565b8181036060830152611a6181846119e7565b905095945050505050565b611a758161195c565b8114611a8057600080fd5b50565b600081359050611a9281611a6c565b92915050565b600060208284031215611aae57611aad6118b8565b5b6000611abc84828501611a83565b91505092915050565b60006040820190508181036000830152611adf81856119e7565b90508181036020830152611af381846119e7565b90509392505050565b6000602082019050611b116000830184611981565b92915050565b600080fd5b600080fd5b7f4e487b7100000000000000000000000000000000000000000000000000000000600052604160045260246000fd5b611b59826119d6565b810181811067ffffffffffffffff82111715611b7857611b77611b21565b5b80604052505050565b6000611b8b6118ae565b9050611b978282611b50565b919050565b600067ffffffffffffffff821115611bb757611bb6611b21565b5b611bc0826119d6565b9050602081019050919050565b82818337600083830152505050565b6000611bef611bea84611b9c565b611b81565b905082815260208101848484011115611c0b57611c0a611b1c565b5b611c16848285611bcd565b509392505050565b600082601f830112611c3357611c32611b17565b5b8135611c43848260208601611bdc565b91505092915050565b600067ffffffffffffffff821115611c6757611c66611b21565b5b602082029050602081019050919050565b600080fd5b6000611c90611c8b84611c4c565b611b81565b90508083825260208201905060208402830185811115611cb357611cb2611c78565b5b835b81811015611cfa57803567ffffffffffffffff811115611cd857611cd7611b17565b5b808601611ce58982611c1e565b85526020850194505050602081019050611cb5565b5050509392505050565b600082601f830112611d1957611d18611b17565b5b8135611d29848260208601611c7d565b91505092915050565b60008060008060808587031215611d4c57611d4b6118b8565b5b6000611d5a8782880161190b565b9450506020611d6b87828801611a83565b935050604085013567ffffffffffffffff811115611d8c57611d8b6118bd565b5b611d9887828801611c1e565b925050606085013567ffffffffffffffff811115611db957611db86118bd565b5b611dc587828801611d04565b91505092959194509250565b60008060408385031215611de857611de76118b8565b5b600083013567ffffffffffffffff811115611e0657611e056118bd565b5b611e1285828601611c1e565b925050602083013567ffffffffffffffff811115611e3357611e326118bd565b5b611e3f85828601611c1e565b9150509250929050565b60008060408385031215611e6057611e5f6118b8565b5b6000611e6e8582860161190b565b925050602083013567ffffffffffffffff811115611e8f57611e8e6118bd565b5b611e9b85828601611c1e565b9150509250929050565b6000602082019050611eba600083018461194d565b92915050565b600081519050919050565b600082825260208201905092915050565b6000819050602082019050919050565b600082825260208201905092915050565b6000611f0882611990565b611f128185611eec565b9350611f228185602086016119ac565b611f2b816119d6565b840191505092915050565b6000611f428383611efd565b905092915050565b6000602082019050919050565b6000611f6282611ec0565b611f6c8185611ecb565b935083602082028501611f7e85611edc565b8060005b85811015611fba5784840389528151611f9b8582611f36565b9450611fa683611f4a565b925060208a01995050600181019050611f82565b50829750879550505050505092915050565b60006020820190508181036000830152611fe68184611f57565b905092915050565b600081519050919050565b600082825260208201905092915050565b6000819050602082019050919050565b612023816118e2565b82525050565b6000612035838361201a565b60208301905092915050565b6000602082019050919050565b600061205982611fee565b6120638185611ff9565b935061206e8361200a565b8060005b8381101561209f5781516120868882612029565b975061209183612041565b925050600181019050612072565b5085935050505092915050565b600060408201905081810360008301526120c6818561204e565b905081810360208301526120da8184611f57565b90509392505050565b7f4e487b7100000000000000000000000000000000000000000000000000000000600052602260045260246000fd5b6000600282049050600182168061212a57607f821691505b60208210810361213d5761213c6120e3565b5b50919050565b7f496e76616c69642066696c6520696e6465780000000000000000000000000000600082015250565b600061217960128361199b565b915061218482612143565b602082019050919050565b600060208201905081810360008301526121a88161216c565b9050919050565b7f4e487b7100000000000000000000000000000000000000000000000000000000600052603260045260246000fd5b7f4f6e6c79207468652070617469656e742063616e206d616e616765207065726d60008201527f697373696f6e7300000000000000000000000000000000000000000000000000602082015250565b600061223a60278361199b565b9150612245826121de565b604082019050919050565b600060208201905081810360008301526122698161222d565b9050919050565b7f4e487b7100000000000000000000000000000000000000000000000000000000600052601160045260246000fd5b60006122aa8261195c565b91506122b58361195c565b92508282019050808211156122cd576122cc612270565b5b92915050565b60008190508160005260206000209050919050565b60006020601f8301049050919050565b600082821b905092915050565b6000600883026123357fffffffffffffffffffffffffffffffffffffffffffffffffffffffffffffffff826122f8565b61233f86836122f8565b95508019841693508086168417925050509392505050565b6000819050919050565b600061237c6123776123728461195c565b612357565b61195c565b9050919050565b6000819050919050565b61239683612361565b6123aa6123a282612383565b848454612305565b825550505050565b600090565b6123bf6123b2565b6123ca81848461238d565b505050565b5b818110156123ee576123e36000826123b7565b6001810190506123d0565b5050565b601f82111561243357612404816122d3565b61240d846122e8565b8101602085101561241c578190505b612430612428856122e8565b8301826123cf565b50505b505050565b600082821c905092915050565b600061245660001984600802612438565b1980831691505092915050565b600061246f8383612445565b9150826002028217905092915050565b61248882611990565b67ffffffffffffffff8111156124a1576124a0611b21565b5b6124ab8254612112565b6124b68282856123f2565b600060209050601f8311600181146124e957600084156124d7578287015190505b6124e18582612463565b865550612549565b601f1984166124f7866122d3565b60005b8281101561251f578489015182556001820191506020850194506020810190506124fa565b8683101561253c5784890151612538601f891682612445565b8355505b6001600288020188555050505b505050505050565b600081905092915050565b600061256782611990565b6125718185612551565b93506125818185602086016119ac565b80840191505092915050565b6000612599828461255c565b915081905092915050565b60006125af8261195c565b91507fffffffffffffffffffffffffffffffffffffffffffffffffffffffffffffffff82036125e1576125e0612270565b5b60018201905091905056fea26469706673582212209f0c67d7fff5a59ce6869336d94cc62fc7a1a07310d99a8080a8247e31c3871b64736f6c634300081b0033",
  "linkReferences": {},
  "deployedLinkReferences": {}
}