{
  "_format": "hh-sol-artifact-1",
  "contractName": "DMEContract",
  "sourceName": "contracts/DMEContract.sol",
  "abi": [
    {
      "inputs": [],
      "stateMutability": "nonpayable",
      "type": "constructor"
    },
    {
      "inputs": [
        {
          "internalType": "string",
          "name": "cid",
          "type": "string"
        },
        {
          "internalType": "string",
          "name": "fileType",
          "type": "string"
        }
      ],
      "name": "addFile",
      "outputs": [],
      "stateMutability": "nonpayable",
      "type": "function"
    },
    {
      "inputs": [
        {
          "internalType": "address",
          "name": "doctor",
          "type": "address"
        }
      ],
      "name": "canAccess",
      "outputs": [
        {
          "internalType": "bool",
          "name": "",
          "type": "bool"
        }
      ],
      "stateMutability": "view",
      "type": "function"
    },
    {
      "inputs": [
        {
          "internalType": "address",
          "name": "doctor",
          "type": "address"
        },
        {
          "internalType": "string",
          "name": "cid",
          "type": "string"
        }
      ],
      "name": "canAccess",
      "outputs": [
        {
          "internalType": "bool",
          "name": "",
          "type": "bool"
        }
      ],
      "stateMutability": "view",
      "type": "function"
    },
    {
      "inputs": [
        {
          "internalType": "uint256",
          "name": "",
          "type": "uint256"
        }
      ],
      "name": "doctorsWithAccess",
      "outputs": [
        {
          "internalType": "address",
          "name": "",
          "type": "address"
        }
      ],
      "stateMutability": "view",
      "type": "function"
    },
    {
      "inputs": [
        {
          "internalType": "uint256",
          "name": "",
          "type": "uint256"
        }
      ],
      "name": "files",
      "outputs": [
        {
          "internalType": "string",
          "name": "cid",
          "type": "string"
        },
        {
          "internalType": "string",
          "name": "fileType",
          "type": "string"
        }
      ],
      "stateMutability": "view",
      "type": "function"
    },
    {
      "inputs": [],
      "name": "getDoctorsWithAccess",
      "outputs": [
        {
          "internalType": "address[]",
          "name": "",
          "type": "address[]"
        },
        {
          "internalType": "string[]",
          "name": "",
          "type": "string[]"
        }
      ],
      "stateMutability": "view",
      "type": "function"
    },
    {
      "inputs": [
        {
          "internalType": "uint256",
          "name": "fileIndex",
          "type": "uint256"
        }
      ],
      "name": "getFileDetails",
      "outputs": [
        {
          "internalType": "string",
          "name": "cid",
          "type": "string"
        },
        {
          "internalType": "string",
          "name": "fileType",
          "type": "string"
        }
      ],
      "stateMutability": "view",
      "type": "function"
    },
    {
      "inputs": [],
      "name": "getFiles",
      "outputs": [
        {
          "internalType": "string[]",
          "name": "",
          "type": "string[]"
        },
        {
          "internalType": "string[]",
          "name": "",
          "type": "string[]"
        }
      ],
      "stateMutability": "view",
      "type": "function"
    },
    {
      "inputs": [
        {
          "internalType": "address",
          "name": "doctor",
          "type": "address"
        }
      ],
      "name": "getFilesWithAccess",
      "outputs": [
        {
          "internalType": "string[]",
          "name": "",
          "type": "string[]"
        }
      ],
      "stateMutability": "view",
      "type": "function"
    },
    {
      "inputs": [
        {
          "internalType": "address",
          "name": "doctor",
          "type": "address"
        },
        {
          "internalType": "uint256",
          "name": "duration",
          "type": "uint256"
        },
        {
          "internalType": "string",
          "name": "doctorName",
          "type": "string"
        },
        {
          "internalType": "string[]",
          "name": "cids",
          "type": "string[]"
        }
      ],
      "name": "grantAccess",
      "outputs": [],
      "stateMutability": "nonpayable",
      "type": "function"
    },
    {
      "inputs": [],
      "name": "patient",
      "outputs": [
        {
          "internalType": "address",
          "name": "",
          "type": "address"
        }
      ],
      "stateMutability": "view",
      "type": "function"
    },
    {
      "inputs": [
        {
          "internalType": "address",
          "name": "",
          "type": "address"
        }
      ],
      "name": "permissions",
      "outputs": [
        {
          "internalType": "address",
          "name": "doctor",
          "type": "address"
        },
        {
          "internalType": "uint256",
          "name": "validUntil",
          "type": "uint256"
        },
        {
          "internalType": "bool",
          "name": "canAccess",
          "type": "bool"
        },
        {
          "internalType": "string",
          "name": "doctorName",
          "type": "string"
        }
      ],
      "stateMutability": "view",
      "type": "function"
    },
    {
      "inputs": [
        {
          "internalType": "address",
          "name": "doctor",
          "type": "address"
        }
      ],
      "name": "revokeAccess",
      "outputs": [],
      "stateMutability": "nonpayable",
      "type": "function"
    }
  ],
  "bytecode": "0x6080604052348015600f57600080fd5b5033600160006101000a81548173ffffffffffffffffffffffffffffffffffffffff021916908373ffffffffffffffffffffffffffffffffffffffff160217905550612902806100606000396000f3fe608060405234801561001057600080fd5b50600436106100cf5760003560e01c806356b13d481161008c57806385e685311161006657806385e685311461024f578063bd96bd201461026b578063f06879d714610289578063f4c714b4146102a8576100cf565b806356b13d48146101bf5780636af1c5f0146101ef57806384fdd1521461021f576100cf565b806301e88208146100d45780630fb106311461010757806318a9d222146101385780631a14bfa914610168578063248bfc3b146101845780632da96d73146101a0575b600080fd5b6100ee60048036038101906100e99190611bc9565b6102d9565b6040516100fe9493929190611cc9565b60405180910390f35b610121600480360381019061011c9190611d41565b6103be565b60405161012f929190611d6e565b60405180910390f35b610152600480360381019061014d9190611bc9565b610571565b60405161015f9190611da5565b60405180910390f35b610182600480360381019061017d9190611fdb565b6107c2565b005b61019e6004803603810190610199919061207a565b610a3f565b005b6101a8610b41565b6040516101b69291906121fe565b60405180910390f35b6101d960048036038101906101d49190612235565b610db0565b6040516101e69190611da5565b60405180910390f35b61020960048036038101906102049190611d41565b6110ad565b6040516102169190612291565b60405180910390f35b61023960048036038101906102349190611bc9565b6110ec565b60405161024691906122ac565b60405180910390f35b61026960048036038101906102649190611bc9565b61132e565b005b61027361141b565b6040516102809190612291565b60405180910390f35b610291611441565b60405161029f92919061238c565b60405180910390f35b6102c260048036038101906102bd9190611d41565b611939565b6040516102d0929190611d6e565b60405180910390f35b60006020528060005260406000206000915090508060000160009054906101000a900473ffffffffffffffffffffffffffffffffffffffff16908060010154908060020160009054906101000a900460ff169080600301805461033b906123f2565b80601f0160208091040260200160405190810160405280929190818152602001828054610367906123f2565b80156103b45780601f10610389576101008083540402835291602001916103b4565b820191906000526020600020905b81548152906001019060200180831161039757829003601f168201915b5050505050905084565b6060806002805490508310610408576040517f08c379a00000000000000000000000000000000000000000000000000000000081526004016103ff9061246f565b60405180910390fd5b60006002848154811061041e5761041d61248f565b5b9060005260206000209060020201604051806040016040529081600082018054610447906123f2565b80601f0160208091040260200160405190810160405280929190818152602001828054610473906123f2565b80156104c05780601f10610495576101008083540402835291602001916104c0565b820191906000526020600020905b8154815290600101906020018083116104a357829003601f168201915b505050505081526020016001820180546104d9906123f2565b80601f0160208091040260200160405190810160405280929190818152602001828054610505906123f2565b80156105525780601f1061052757610100808354040283529160200191610552565b820191906000526020600020905b81548152906001019060200180831161053557829003601f168201915b5050505050815250509050806000015181602001519250925050915091565b6000806000808473ffffffffffffffffffffffffffffffffffffffff1673ffffffffffffffffffffffffffffffffffffffff1681526020019081526020016000206040518060a00160405290816000820160009054906101000a900473ffffffffffffffffffffffffffffffffffffffff1673ffffffffffffffffffffffffffffffffffffffff1673ffffffffffffffffffffffffffffffffffffffff168152602001600182015481526020016002820160009054906101000a900460ff16151515158152602001600382018054610648906123f2565b80601f0160208091040260200160405190810160405280929190818152602001828054610674906123f2565b80156106c15780601f10610696576101008083540402835291602001916106c1565b820191906000526020600020905b8154815290600101906020018083116106a457829003601f168201915b5050505050815260200160048201805480602002602001604051908101604052809291908181526020016000905b8282101561079b57838290600052602060002001805461070e906123f2565b80601f016020809104026020016040519081016040528092919081815260200182805461073a906123f2565b80156107875780601f1061075c57610100808354040283529160200191610787565b820191906000526020600020905b81548152906001019060200180831161076a57829003601f168201915b5050505050815260200190600101906106ef565b50505050815250509050806040015180156107ba575080602001514211155b915050919050565b600160009054906101000a900473ffffffffffffffffffffffffffffffffffffffff1673ffffffffffffffffffffffffffffffffffffffff163373ffffffffffffffffffffffffffffffffffffffff1614610852576040517f08c379a000000000000000000000000000000000000000000000000000000000815260040161084990612530565b60405180910390fd5b6000808573ffffffffffffffffffffffffffffffffffffffff1673ffffffffffffffffffffffffffffffffffffffff16815260200190815260200160002060020160009054906101000a900460ff16610909576003849080600181540180825580915050600190039060005260206000200160009091909190916101000a81548173ffffffffffffffffffffffffffffffffffffffff021916908373ffffffffffffffffffffffffffffffffffffffff1602179055505b6040518060a001604052808573ffffffffffffffffffffffffffffffffffffffff168152602001844261093c919061257f565b8152602001600115158152602001838152602001828152506000808673ffffffffffffffffffffffffffffffffffffffff1673ffffffffffffffffffffffffffffffffffffffff16815260200190815260200160002060008201518160000160006101000a81548173ffffffffffffffffffffffffffffffffffffffff021916908373ffffffffffffffffffffffffffffffffffffffff1602179055506020820151816001015560408201518160020160006101000a81548160ff0219169083151502179055506060820151816003019081610a18919061275f565b506080820151816004019080519060200190610a35929190611a7d565b5090505050505050565b600160009054906101000a900473ffffffffffffffffffffffffffffffffffffffff1673ffffffffffffffffffffffffffffffffffffffff163373ffffffffffffffffffffffffffffffffffffffff1614610acf576040517f08c379a0000000000000000000000000000000000000000000000000000000008152600401610ac690612530565b60405180910390fd5b600260405180604001604052808481526020018381525090806001815401808255809150506001900390600052602060002090600202016000909190919091506000820151816000019081610b24919061275f565b506020820151816001019081610b3a919061275f565b5050505050565b6060806000600280549050905060008167ffffffffffffffff811115610b6a57610b69611dca565b5b604051908082528060200260200182016040528015610b9d57816020015b6060815260200190600190039081610b885790505b50905060008267ffffffffffffffff811115610bbc57610bbb611dca565b5b604051908082528060200260200182016040528015610bef57816020015b6060815260200190600190039081610bda5790505b50905060005b83811015610da25760028181548110610c1157610c1061248f565b5b90600052602060002090600202016000018054610c2d906123f2565b80601f0160208091040260200160405190810160405280929190818152602001828054610c59906123f2565b8015610ca65780601f10610c7b57610100808354040283529160200191610ca6565b820191906000526020600020905b815481529060010190602001808311610c8957829003601f168201915b5050505050838281518110610cbe57610cbd61248f565b5b602002602001018190525060028181548110610cdd57610cdc61248f565b5b90600052602060002090600202016001018054610cf9906123f2565b80601f0160208091040260200160405190810160405280929190818152602001828054610d25906123f2565b8015610d725780601f10610d4757610100808354040283529160200191610d72565b820191906000526020600020905b815481529060010190602001808311610d5557829003601f168201915b5050505050828281518110610d8a57610d8961248f565b5b60200260200101819052508080600101915050610bf5565b508181945094505050509091565b6000806000808573ffffffffffffffffffffffffffffffffffffffff1673ffffffffffffffffffffffffffffffffffffffff1681526020019081526020016000206040518060a00160405290816000820160009054906101000a900473ffffffffffffffffffffffffffffffffffffffff1673ffffffffffffffffffffffffffffffffffffffff1673ffffffffffffffffffffffffffffffffffffffff168152602001600182015481526020016002820160009054906101000a900460ff16151515158152602001600382018054610e87906123f2565b80601f0160208091040260200160405190810160405280929190818152602001828054610eb3906123f2565b8015610f005780601f10610ed557610100808354040283529160200191610f00565b820191906000526020600020905b815481529060010190602001808311610ee357829003601f168201915b5050505050815260200160048201805480602002602001604051908101604052809291908181526020016000905b82821015610fda578382906000526020600020018054610f4d906123f2565b80601f0160208091040260200160405190810160405280929190818152602001828054610f79906123f2565b8015610fc65780601f10610f9b57610100808354040283529160200191610fc6565b820191906000526020600020905b815481529060010190602001808311610fa957829003601f168201915b505050505081526020019060010190610f2e565b5050505081525050905080604001511580610ff85750806020015142115b156110075760009150506110a7565b60005b8160800151518110156110a05783604051602001611028919061286d565b60405160208183030381529060405280519060200120826080015182815181106110555761105461248f565b5b602002602001015160405160200161106d919061286d565b6040516020818303038152906040528051906020012003611093576001925050506110a7565b808060010191505061100a565b5060009150505b92915050565b600381815481106110bd57600080fd5b906000526020600020016000915054906101000a900473ffffffffffffffffffffffffffffffffffffffff1681565b606060008060008473ffffffffffffffffffffffffffffffffffffffff1673ffffffffffffffffffffffffffffffffffffffff1681526020019081526020016000206040518060a00160405290816000820160009054906101000a900473ffffffffffffffffffffffffffffffffffffffff1673ffffffffffffffffffffffffffffffffffffffff1673ffffffffffffffffffffffffffffffffffffffff168152602001600182015481526020016002820160009054906101000a900460ff161515151581526020016003820180546111c4906123f2565b80601f01602080910402602001604051908101604052809291908181526020018280546111f0906123f2565b801561123d5780601f106112125761010080835404028352916020019161123d565b820191906000526020600020905b81548152906001019060200180831161122057829003601f168201915b5050505050815260200160048201805480602002602001604051908101604052809291908181526020016000905b8282101561131757838290600052602060002001805461128a906123f2565b80601f01602080910402602001604051908101604052809291908181526020018280546112b6906123f2565b80156113035780601f106112d857610100808354040283529160200191611303565b820191906000526020600020905b8154815290600101906020018083116112e657829003601f168201915b50505050508152602001906001019061126b565b505050508152505090508060800151915050919050565b600160009054906101000a900473ffffffffffffffffffffffffffffffffffffffff1673ffffffffffffffffffffffffffffffffffffffff163373ffffffffffffffffffffffffffffffffffffffff16146113be576040517f08c379a00000000000000000000000000000000000000000000000000000000081526004016113b590612530565b60405180910390fd5b60008060008373ffffffffffffffffffffffffffffffffffffffff1673ffffffffffffffffffffffffffffffffffffffff16815260200190815260200160002060020160006101000a81548160ff02191690831515021790555050565b600160009054906101000a900473ffffffffffffffffffffffffffffffffffffffff1681565b6060806000805b60038054905081101561158e576000806003838154811061146c5761146b61248f565b5b9060005260206000200160009054906101000a900473ffffffffffffffffffffffffffffffffffffffff1673ffffffffffffffffffffffffffffffffffffffff1673ffffffffffffffffffffffffffffffffffffffff16815260200190815260200160002060020160009054906101000a900460ff16801561156d575060008060038381548110611500576114ff61248f565b5b9060005260206000200160009054906101000a900473ffffffffffffffffffffffffffffffffffffffff1673ffffffffffffffffffffffffffffffffffffffff1673ffffffffffffffffffffffffffffffffffffffff168152602001908152602001600020600101544211155b1561158157818061157d90612884565b9250505b8080600101915050611448565b5060008167ffffffffffffffff8111156115ab576115aa611dca565b5b6040519080825280602002602001820160405280156115d95781602001602082028036833780820191505090505b50905060008267ffffffffffffffff8111156115f8576115f7611dca565b5b60405190808252806020026020018201604052801561162b57816020015b60608152602001906001900390816116165790505b5090506000805b60038054905081101561192a57600080600383815481106116565761165561248f565b5b9060005260206000200160009054906101000a900473ffffffffffffffffffffffffffffffffffffffff1673ffffffffffffffffffffffffffffffffffffffff1673ffffffffffffffffffffffffffffffffffffffff16815260200190815260200160002060020160009054906101000a900460ff1680156117575750600080600383815481106116ea576116e961248f565b5b9060005260206000200160009054906101000a900473ffffffffffffffffffffffffffffffffffffffff1673ffffffffffffffffffffffffffffffffffffffff1673ffffffffffffffffffffffffffffffffffffffff168152602001908152602001600020600101544211155b1561191d57600381815481106117705761176f61248f565b5b9060005260206000200160009054906101000a900473ffffffffffffffffffffffffffffffffffffffff168483815181106117ae576117ad61248f565b5b602002602001019073ffffffffffffffffffffffffffffffffffffffff16908173ffffffffffffffffffffffffffffffffffffffff1681525050600080600383815481106117ff576117fe61248f565b5b9060005260206000200160009054906101000a900473ffffffffffffffffffffffffffffffffffffffff1673ffffffffffffffffffffffffffffffffffffffff1673ffffffffffffffffffffffffffffffffffffffff1681526020019081526020016000206003018054611872906123f2565b80601f016020809104026020016040519081016040528092919081815260200182805461189e906123f2565b80156118eb5780601f106118c0576101008083540402835291602001916118eb565b820191906000526020600020905b8154815290600101906020018083116118ce57829003601f168201915b50505050508383815181106119035761190261248f565b5b6020026020010181905250818061191990612884565b9250505b8080600101915050611632565b50828295509550505050509091565b6002818154811061194957600080fd5b906000526020600020906002020160009150905080600001805461196c906123f2565b80601f0160208091040260200160405190810160405280929190818152602001828054611998906123f2565b80156119e55780601f106119ba576101008083540402835291602001916119e5565b820191906000526020600020905b8154815290600101906020018083116119c857829003601f168201915b5050505050908060010180546119fa906123f2565b80601f0160208091040260200160405190810160405280929190818152602001828054611a26906123f2565b8015611a735780601f10611a4857610100808354040283529160200191611a73565b820191906000526020600020905b815481529060010190602001808311611a5657829003601f168201915b5050505050905082565b828054828255906000526020600020908101928215611ac5579160200282015b82811115611ac4578251829081611ab4919061275f565b5091602001919060010190611a9d565b5b509050611ad29190611ad6565b5090565b5b80821115611af65760008181611aed9190611afa565b50600101611ad7565b5090565b508054611b06906123f2565b6000825580601f10611b185750611b37565b601f016020900490600052602060002090810190611b369190611b3a565b5b50565b5b80821115611b53576000816000905550600101611b3b565b5090565b6000604051905090565b600080fd5b600080fd5b600073ffffffffffffffffffffffffffffffffffffffff82169050919050565b6000611b9682611b6b565b9050919050565b611ba681611b8b565b8114611bb157600080fd5b50565b600081359050611bc381611b9d565b92915050565b600060208284031215611bdf57611bde611b61565b5b6000611bed84828501611bb4565b91505092915050565b611bff81611b8b565b82525050565b6000819050919050565b611c1881611c05565b82525050565b60008115159050919050565b611c3381611c1e565b82525050565b600081519050919050565b600082825260208201905092915050565b60005b83811015611c73578082015181840152602081019050611c58565b60008484015250505050565b6000601f19601f8301169050919050565b6000611c9b82611c39565b611ca58185611c44565b9350611cb5818560208601611c55565b611cbe81611c7f565b840191505092915050565b6000608082019050611cde6000830187611bf6565b611ceb6020830186611c0f565b611cf86040830185611c2a565b8181036060830152611d0a8184611c90565b905095945050505050565b611d1e81611c05565b8114611d2957600080fd5b50565b600081359050611d3b81611d15565b92915050565b600060208284031215611d5757611d56611b61565b5b6000611d6584828501611d2c565b91505092915050565b60006040820190508181036000830152611d888185611c90565b90508181036020830152611d9c8184611c90565b90509392505050565b6000602082019050611dba6000830184611c2a565b92915050565b600080fd5b600080fd5b7f4e487b7100000000000000000000000000000000000000000000000000000000600052604160045260246000fd5b611e0282611c7f565b810181811067ffffffffffffffff82111715611e2157611e20611dca565b5b80604052505050565b6000611e34611b57565b9050611e408282611df9565b919050565b600067ffffffffffffffff821115611e6057611e5f611dca565b5b611e6982611c7f565b9050602081019050919050565b82818337600083830152505050565b6000611e98611e9384611e45565b611e2a565b905082815260208101848484011115611eb457611eb3611dc5565b5b611ebf848285611e76565b509392505050565b600082601f830112611edc57611edb611dc0565b5b8135611eec848260208601611e85565b91505092915050565b600067ffffffffffffffff821115611f1057611f0f611dca565b5b602082029050602081019050919050565b600080fd5b6000611f39611f3484611ef5565b611e2a565b90508083825260208201905060208402830185811115611f5c57611f5b611f21565b5b835b81811015611fa357803567ffffffffffffffff811115611f8157611f80611dc0565b5b808601611f8e8982611ec7565b85526020850194505050602081019050611f5e565b5050509392505050565b600082601f830112611fc257611fc1611dc0565b5b8135611fd2848260208601611f26565b91505092915050565b60008060008060808587031215611ff557611ff4611b61565b5b600061200387828801611bb4565b945050602061201487828801611d2c565b935050604085013567ffffffffffffffff81111561203557612034611b66565b5b61204187828801611ec7565b925050606085013567ffffffffffffffff81111561206257612061611b66565b5b61206e87828801611fad565b91505092959194509250565b6000806040838503121561209157612090611b61565b5b600083013567ffffffffffffffff8111156120af576120ae611b66565b5b6120bb85828601611ec7565b925050602083013567ffffffffffffffff8111156120dc576120db611b66565b5b6120e885828601611ec7565b9150509250929050565b600081519050919050565b600082825260208201905092915050565b6000819050602082019050919050565b600082825260208201905092915050565b600061213a82611c39565b612144818561211e565b9350612154818560208601611c55565b61215d81611c7f565b840191505092915050565b6000612174838361212f565b905092915050565b6000602082019050919050565b6000612194826120f2565b61219e81856120fd565b9350836020820285016121b08561210e565b8060005b858110156121ec57848403895281516121cd8582612168565b94506121d88361217c565b925060208a019950506001810190506121b4565b50829750879550505050505092915050565b600060408201905081810360008301526122188185612189565b9050818103602083015261222c8184612189565b90509392505050565b6000806040838503121561224c5761224b611b61565b5b600061225a85828601611bb4565b925050602083013567ffffffffffffffff81111561227b5761227a611b66565b5b61228785828601611ec7565b9150509250929050565b60006020820190506122a66000830184611bf6565b92915050565b600060208201905081810360008301526122c68184612189565b905092915050565b600081519050919050565b600082825260208201905092915050565b6000819050602082019050919050565b61230381611b8b565b82525050565b600061231583836122fa565b60208301905092915050565b6000602082019050919050565b6000612339826122ce565b61234381856122d9565b935061234e836122ea565b8060005b8381101561237f5781516123668882612309565b975061237183612321565b925050600181019050612352565b5085935050505092915050565b600060408201905081810360008301526123a6818561232e565b905081810360208301526123ba8184612189565b90509392505050565b7f4e487b7100000000000000000000000000000000000000000000000000000000600052602260045260246000fd5b6000600282049050600182168061240a57607f821691505b60208210810361241d5761241c6123c3565b5b50919050565b7f496e76616c69642066696c6520696e6465780000000000000000000000000000600082015250565b6000612459601283611c44565b915061246482612423565b602082019050919050565b600060208201905081810360008301526124888161244c565b9050919050565b7f4e487b7100000000000000000000000000000000000000000000000000000000600052603260045260246000fd5b7f4f6e6c79207468652070617469656e742063616e206d616e616765207065726d60008201527f697373696f6e7300000000000000000000000000000000000000000000000000602082015250565b600061251a602783611c44565b9150612525826124be565b604082019050919050565b600060208201905081810360008301526125498161250d565b9050919050565b7f4e487b7100000000000000000000000000000000000000000000000000000000600052601160045260246000fd5b600061258a82611c05565b915061259583611c05565b92508282019050808211156125ad576125ac612550565b5b92915050565b60008190508160005260206000209050919050565b60006020601f8301049050919050565b600082821b905092915050565b6000600883026126157fffffffffffffffffffffffffffffffffffffffffffffffffffffffffffffffff826125d8565b61261f86836125d8565b95508019841693508086168417925050509392505050565b6000819050919050565b600061265c61265761265284611c05565b612637565b611c05565b9050919050565b6000819050919050565b61267683612641565b61268a61268282612663565b8484546125e5565b825550505050565b600090565b61269f612692565b6126aa81848461266d565b505050565b5b818110156126ce576126c3600082612697565b6001810190506126b0565b5050565b601f821115612713576126e4816125b3565b6126ed846125c8565b810160208510156126fc578190505b612710612708856125c8565b8301826126af565b50505b505050565b600082821c905092915050565b600061273660001984600802612718565b1980831691505092915050565b600061274f8383612725565b9150826002028217905092915050565b61276882611c39565b67ffffffffffffffff81111561278157612780611dca565b5b61278b82546123f2565b6127968282856126d2565b600060209050601f8311600181146127c957600084156127b7578287015190505b6127c18582612743565b865550612829565b601f1984166127d7866125b3565b60005b828110156127ff578489015182556001820191506020850194506020810190506127da565b8683101561281c5784890151612818601f891682612725565b8355505b6001600288020188555050505b505050505050565b600081905092915050565b600061284782611c39565b6128518185612831565b9350612861818560208601611c55565b80840191505092915050565b6000612879828461283c565b915081905092915050565b600061288f82611c05565b91507fffffffffffffffffffffffffffffffffffffffffffffffffffffffffffffffff82036128c1576128c0612550565b5b60018201905091905056fea26469706673582212201c004ecded6affc078eb3e2dc19d84f3bfb8ae57e2875017831d3e669f08a4dc64736f6c634300081b0033",
  "linkReferences": {},
  "deployedLinkReferences": {}
}